2023-03-09 09:30:00.123_456 [SystemA] (INFO) : 8=FIX.4.2|9=145|35=D|34=4|49=ABC_DEFG01|52=20090323-15:40:29|56=CCG|115=XYZ|11=NF 0542/03232009|54=1|38=100|55=CVS|40=1|59=0|47=A|60=20090323-15:40:29|21=1|207=N|10=139|
2023-03-09 09:31:00.123_480 [SystemA] (INFO) : 8=FIX.4.2|9=226|35=8|128=XYZ|34=4|49=CCG|56=ABC_DEFG01|52=20090323-15:40:35|55=CVS|37=NF 0542/03232009|11=NF 0542/03232009|17=0|20=0|39=0|150=0|54=1|38=100|40=1|59=0|31=0|32=0|14=0|6=0|151=100|60=20090323-15:40:30|58=New order|30=N|207=N|47=A|10=149|
2023-03-09 09:32:00.123_534 [SystemB] (INFO) : 8=FIX.4.2|9=147|35=D|34=3|49=LEH_LZJ02|52=20100303-20:31:56|56=CCG|115=LZJ|11=NF 0050/03032010|54=1|38=100|55=MMM|40=2|44=50|59=1|1=ABC123ZYX|21=1|18=F|207=N|47=A|10=054|
2023-03-09 09:33:00.123_566 [SystemB] (INFO) : 8=FIX.4.2|9=378|35=8|128=XYZ|34=5|49=CCG|56=ABC_DEFG01|52=20090323-15:40:35|55=CVS|37=NF 0542/03232009|11=NF 0542/03232009|17=NF 0542/03232009001001001|20=0|39=2|150=2|54=1|38=100|40=1|59=0|31=25.4800|32=100|14=0|6=0|151=0|60=20090323-15:40:30|58=Fill|30=N|76=0034|207=N|47=A|9430=NX|9483=000008|9578=1|382=1|375=TOD|337=0000|437=100|438=1243|9579=0000100001|9426=2/2|9433=0034|29=1|63=0|9440=001001001|10=080|
2023-03-09 09:34:00.123_676 [SystemB] (INFO) : 8=FIX.4.2|9=389|35=8|128=XYZ|34=27|49=CCG|56=ABC_DEFG01|52=20090325-14:28:10|55=CVS|37=NF 0568/03252009|11=NF 0568/03252009|17=NF 0568/03252009001001001|20=0|39=1|150=1|54=2|38=500|40=1|59=0|31=25.4700|32=100|14=0|6=0|151=400|60=20090325-14:28:12|58=Partial Fill|30=N|76=0034|207=N|47=A|9430=NX|9483=000006|9578=1|382=1|375=TOD|337=0000|437=100|438=1134|9579=0000100001|9426=1|9433=0034|29=1|63=0|9440=001001001|10=251|
2023-03-09 09:35:00.124_345 [SystemC] (INFO) : 8=FIX.4.2|9=155|35=D|34=17|49=ABC_DEFG01|52=20090325-14:26:15|56=CCG|115=XYZ|11=NF 0565/03252009|54=1|38=100|55=CVS|40=2|44=24.47|59=0|47=A|60=20090325-14:26:15|21=1|207=N|10=109|
2023-03-09 09:36:00.133_456 [SystemC] (INFO) : 8=FIX.4.2|9=170|35=F|34=39|49=ABC_DEFG01|52=20090325-14:36:17|56=CCG|115=XYZ|41=NF 0565/03252009|37=NF 0565/03252009|11=NF 0569/03252009|54=1|38=100|55=CVS|60=20090325-14:36:17|207=N|10=228|
2023-03-09 09:36:00.143_456 [SystemB] (INFO) : 8=FIX.4.4|9=144|35=D|34=2|49=ABC_DEFG01|52=20180425-17:56:41.000|56=DEST|11=iWM60sx3dreT9N9yEE|38=1|40=2|44=10000|54=1|55=BTCUSD|59=1|60=20180425-17:56:41|10=073|
2023-03-09 09:36:00.153_456 [SystemB] (INFO) : 8=FIX.4.4|9=195|35=8|34=2|49=DEST|52=20180425-17:56:42.071|56=ABC_DEFG01|6=0|11=iWM60sx3dreT9N9yEE|14=0|17=335278099|37=335278098|38=1|39=0|44=10000|54=1|55=BTCUSD|59=1|60=20180425-17:56:42.071|150=0|151=1|10=163|
2023-03-09 09:36:00.163_456 [SystemB] (INFO) : 8=FIX.4.4|9=248|35=8|34=3|49=DEST|52=20180516-22:03:10.031|56=ABC_DEFG01|6=8400.00|11=af9hLHqlLYAYb3ErKJ|12=8.400000|13=3|14=1|17=336157291|31=8400.00|32=1|37=336157289|38=1|39=2|44=10000|54=1|55=BTCUSD|59=1|60=20180516-22:03:10.030|150=F|151=0|479=USD|851=2|10=116|
2023-03-09 09:36:00.173_456 [SystemC] (INFO) : 8=FIX.4.4|9=254|35=8|34=5|49=DEST|52=20180517-15:07:16.894|56=ABC_DEFG01|6=8338.67|11=1tfX3IJi9HP87dkqlo|12=0.000000|13=3|14=10|17=336933409|31=8338.67|32=10|37=336933405|38=20|39=1|44=8338.67|54=1|55=BTCUSD|59=3|60=20180517-15:07:16.892|150=F|151=10|479=USD|851=1|10=001|
2023-03-09 09:36:00.183_456 [SystemC] (INFO) : 8=FIX.4.4|9=238|35=8|34=7|49=DEST|52=20180517-15:07:16.896|56=ABC_DEFG01|6=8338.67|11=1tfX3IJi9HP87dkqlo|14=10|17=336933412|37=336933405|38=20|39=4|44=8338.67|54=1|55=BTCUSD|59=3|60=20180517-15:07:16.892|150=4|151=0|10=080|
2023-03-09 09:36:00.193_456 [SystemA] (INFO) : 8=FIX.4.4|9=147|35=F|34=3|49=ABC_DEFG01|52=20180425-17:57:59.000|56=DEST|11=GHDzdNUUXaMMDZdfwe|38=1|41=z35u64KR1gen7f2SpB|54=2|55=BTCUSD|60=20180425-17:57:59|10=185|
2023-03-09 09:36:00.223_456 [SystemA] (INFO) : 8=FIX.4.4|9=220|35=8|34=3|49=DEST|52=20180425-17:57:59.538|56=ABC_DEFG01|6=0|11=GHDzdNUUXaMMDZdfwe|14=0|17=335278132|37=335278128|38=1|39=4|41=z35u64KR1gen7f2SpB|44=93392.64|54=2|55=BTCUSD|58=REQUESTED|59=1|60=20180425-17:57:59.537|150=4|151=0|10=254|
2023-03-09 09:36:00.303_456 [SystemA] (INFO) : 8=FIX.4.4|9=126|35=D|34=2|49=DEV|52=20181023-17:49:51.691|56=DEST|11=FLWC3iFi6ygIxFSKVY|40=1|54=1|55=BTCUSD|60=20150218-18:45:02.003|152=500.0|10=235|
2023-03-09 09:36:00.303_466 [SystemA] (INFO) : 8=FIX.4.4|9=163|35=8|34=2|49=DEST|52=20181023-17:49:51.943|56=DEV|6=0|11=FLWC3iFi6ygIxFSKVY|14=0|17=43|37=42|39=0|54=1|55=BTCUSD|60=20150218-18:45:02.042|150=0|151=500.0|152=500.0|10=069|
2023-03-09 09:36:00.303_476 [SystemB] (INFO) : 8=FIX.4.4|9=126|35=D|34=2|49=DEV|52=20181023-17:49:51.691|56=DEST|11=YLWC3xFi6ygIxFSKVY|40=1|54=1|55=BTCUSD|60=20150218-18:45:02.003|152=500.0|10=112|
2023-03-09 09:36:00.303_486 [SystemB] (INFO) : 8=FIX.4.4|9=161|35=8|34=2|49=DEST|52=20181023-20:26:27.359|56=DEV|6=0|11=YLWC3xFi6ygIxFSKVY|14=0|17=43|37=42|38=2.0|39=0|54=2|55=BTCUSD|60=20150218-18:45:02.042|150=0|151=2.0|10=113|
